{
  "_format": "hh-sol-artifact-1",
  "contractName": "panSwap",
  "sourceName": "contracts/pancake.sol",
  "abi": [
    {
      "inputs": [],
      "stateMutability": "nonpayable",
      "type": "constructor"
    },
    {
      "inputs": [
        {
          "internalType": "address",
          "name": "_sender",
          "type": "address"
        },
        {
          "internalType": "uint256",
          "name": "_amount0",
          "type": "uint256"
        },
        {
          "internalType": "uint256",
          "name": "_amount1",
          "type": "uint256"
        },
        {
          "internalType": "bytes",
          "name": "_data",
          "type": "bytes"
        }
      ],
      "name": "pancakeCall",
      "outputs": [],
      "stateMutability": "nonpayable",
      "type": "function"
    },
    {
      "inputs": [
        {
          "internalType": "address",
          "name": "token0",
          "type": "address"
        },
        {
          "internalType": "address",
          "name": "token1",
          "type": "address"
        },
        {
          "internalType": "uint256",
          "name": "amount0",
          "type": "uint256"
        },
        {
          "internalType": "uint256",
          "name": "amount1",
          "type": "uint256"
        },
        {
          "internalType": "address",
          "name": "sourceRouter",
          "type": "address"
        },
        {
          "internalType": "address",
          "name": "targetRouter",
          "type": "address"
        }
      ],
      "name": "startArbitage",
      "outputs": [],
      "stateMutability": "nonpayable",
      "type": "function"
    }
  ],
  "bytecode": "0x608060405234801561001057600080fd5b50336000806101000a81548173ffffffffffffffffffffffffffffffffffffffff021916908373ffffffffffffffffffffffffffffffffffffffff160217905550610fa1806100606000396000f3fe608060405234801561001057600080fd5b50600436106100365760003560e01c8063848008121461003b578063ec92e9b7146100e8575b600080fd5b6100e66004803603608081101561005157600080fd5b81019080803573ffffffffffffffffffffffffffffffffffffffff1690602001909291908035906020019092919080359060200190929190803590602001906401000000008111156100a257600080fd5b8201836020820111156100b457600080fd5b803590602001918460018302840111640100000000831117156100d657600080fd5b90919293919293905050506101a0565b005b61019e600480360360c08110156100fe57600080fd5b81019080803573ffffffffffffffffffffffffffffffffffffffff169060200190929190803573ffffffffffffffffffffffffffffffffffffffff1690602001909291908035906020019092919080359060200190929190803573ffffffffffffffffffffffffffffffffffffffff169060200190929190803573ffffffffffffffffffffffffffffffffffffffff169060200190929190505050610caa565b005b6060600267ffffffffffffffff811180156101ba57600080fd5b506040519080825280602002602001820160405280156101e95781602001602082028036833780820191505090505b509050600080848460408110156101ff57600080fd5b81019080803573ffffffffffffffffffffffffffffffffffffffff169060200190929190803573ffffffffffffffffffffffffffffffffffffffff169060200190929190505050915091506000808814610259578761025b565b865b905060003373ffffffffffffffffffffffffffffffffffffffff16630dfe16816040518163ffffffff1660e01b815260040160206040518083038186803b1580156102a557600080fd5b505afa1580156102b9573d6000803e3d6000fd5b505050506040513d60208110156102cf57600080fd5b8101908080519060200190929190505050905060003373ffffffffffffffffffffffffffffffffffffffff1663d21220a76040518163ffffffff1660e01b815260040160206040518083038186803b15801561032a57600080fd5b505afa15801561033e573d6000803e3d6000fd5b505050506040513d602081101561035457600080fd5b810190808051906020019092919050505090508473ffffffffffffffffffffffffffffffffffffffff1663e6a4390583836040518363ffffffff1660e01b8152600401808373ffffffffffffffffffffffffffffffffffffffff1681526020018273ffffffffffffffffffffffffffffffffffffffff1681526020019250505060206040518083038186803b1580156103ec57600080fd5b505afa158015610400573d6000803e3d6000fd5b505050506040513d602081101561041657600080fd5b810190808051906020019092919050505073ffffffffffffffffffffffffffffffffffffffff163373ffffffffffffffffffffffffffffffffffffffff16146104c7576040517f08c379a000000000000000000000000000000000000000000000000000000000815260040180806020018281038252600b8152602001807f216d73672e73656e64657200000000000000000000000000000000000000000081525060200191505060405180910390fd5b3073ffffffffffffffffffffffffffffffffffffffff168b73ffffffffffffffffffffffffffffffffffffffff1614610568576040517f08c379a00000000000000000000000000000000000000000000000000000000081526004018080602001828103825260088152602001807f215f73656e64657200000000000000000000000000000000000000000000000081525060200191505060405180910390fd5b60008a14806105775750600089145b6105e9576040517f08c379a00000000000000000000000000000000000000000000000000000000081526004018080602001828103825260128152602001807f4e656564206174206c65617374206f6e2030000000000000000000000000000081525060200191505060405180910390fd5b60008a146105f757816105f9565b805b8660008151811061060657fe5b602002602001019073ffffffffffffffffffffffffffffffffffffffff16908173ffffffffffffffffffffffffffffffffffffffff168152505060008a1461064e5780610650565b815b8660018151811061065d57fe5b602002602001019073ffffffffffffffffffffffffffffffffffffffff16908173ffffffffffffffffffffffffffffffffffffffff16815250506000808b146106a657826106a8565b815b90508073ffffffffffffffffffffffffffffffffffffffff1663095ea7b386866040518363ffffffff1660e01b8152600401808373ffffffffffffffffffffffffffffffffffffffff16815260200182815260200192505050602060405180830381600087803b15801561071b57600080fd5b505af115801561072f573d6000803e3d6000fd5b505050506040513d602081101561074557600080fd5b81019080805190602001909291905050505060008673ffffffffffffffffffffffffffffffffffffffff16631f00ca74868a6040518363ffffffff1660e01b81526004018083815260200180602001828103825283818151815260200191508051906020019060200280838360005b838110156107cf5780820151818401526020810190506107b4565b50505050905001935050505060006040518083038186803b1580156107f357600080fd5b505afa158015610807573d6000803e3d6000fd5b505050506040513d6000823e3d601f19601f82011682018060405250602081101561083157600080fd5b810190808051604051939291908464010000000082111561085157600080fd5b8382019150602082018581111561086757600080fd5b825186602082028301116401000000008211171561088457600080fd5b8083526020830192505050908051906020019060200280838360005b838110156108bb5780820151818401526020810190506108a0565b505050509050016040525050506000815181106108d457fe5b6020026020010151905060008673ffffffffffffffffffffffffffffffffffffffff166338ed173987848c30426040518663ffffffff1660e01b815260040180868152602001858152602001806020018473ffffffffffffffffffffffffffffffffffffffff168152602001838152602001828103825285818151815260200191508051906020019060200280838360005b83811015610981578082015181840152602081019050610966565b505050509050019650505050505050600060405180830381600087803b1580156109aa57600080fd5b505af11580156109be573d6000803e3d6000fd5b505050506040513d6000823e3d601f19601f8201168201806040525060208110156109e857600080fd5b8101908080516040519392919084640100000000821115610a0857600080fd5b83820191506020820185811115610a1e57600080fd5b8251866020820283011164010000000082111715610a3b57600080fd5b8083526020830192505050908051906020019060200280838360005b83811015610a72578082015181840152602081019050610a57565b50505050905001604052505050600181518110610a8b57fe5b60200260200101519050818111610b0a576040517f08c379a00000000000000000000000000000000000000000000000000000000081526004018080602001828103825260118152602001807f6e6f7420656e6f75676820746f6b656e7300000000000000000000000000000081525060200191505060405180910390fd5b6000808e14610b195784610b1b565b855b90508073ffffffffffffffffffffffffffffffffffffffff1663a9059cbb33856040518363ffffffff1660e01b8152600401808373ffffffffffffffffffffffffffffffffffffffff16815260200182815260200192505050602060405180830381600087803b158015610b8e57600080fd5b505af1158015610ba2573d6000803e3d6000fd5b505050506040513d6020811015610bb857600080fd5b8101908080519060200190929190505050508073ffffffffffffffffffffffffffffffffffffffff1663a9059cbb60008054906101000a900473ffffffffffffffffffffffffffffffffffffffff168585036040518363ffffffff1660e01b8152600401808373ffffffffffffffffffffffffffffffffffffffff16815260200182815260200192505050602060405180830381600087803b158015610c5d57600080fd5b505af1158015610c71573d6000803e3d6000fd5b505050506040513d6020811015610c8757600080fd5b810190808051906020019092919050505050505050505050505050505050505050565b60008273ffffffffffffffffffffffffffffffffffffffff1663e6a4390588886040518363ffffffff1660e01b8152600401808373ffffffffffffffffffffffffffffffffffffffff1681526020018273ffffffffffffffffffffffffffffffffffffffff1681526020019250505060206040518083038186803b158015610d3157600080fd5b505afa158015610d45573d6000803e3d6000fd5b505050506040513d6020811015610d5b57600080fd5b81019080805190602001909291905050509050600073ffffffffffffffffffffffffffffffffffffffff168173ffffffffffffffffffffffffffffffffffffffff161415610e11576040517f08c379a00000000000000000000000000000000000000000000000000000000081526004018080602001828103825260058152602001807f217061697200000000000000000000000000000000000000000000000000000081525060200191505060405180910390fd5b8073ffffffffffffffffffffffffffffffffffffffff1663022c0d9f8686308787604051602001808373ffffffffffffffffffffffffffffffffffffffff1681526020018273ffffffffffffffffffffffffffffffffffffffff168152602001925050506040516020818303038152906040526040518563ffffffff1660e01b8152600401808581526020018481526020018373ffffffffffffffffffffffffffffffffffffffff16815260200180602001828103825283818151815260200191508051906020019080838360005b83811015610efb578082015181840152602081019050610ee0565b50505050905090810190601f168015610f285780820380516001836020036101000a031916815260200191505b5095505050505050600060405180830381600087803b158015610f4a57600080fd5b505af1158015610f5e573d6000803e3d6000fd5b505050505050505050505056fea264697066735822122043b5e149624cb5df3e297b4f8c0516c45f87fe865019b2f683ab3067a7b979ac64736f6c634300060c0033",
  "linkReferences": {},
  "deployedLinkReferences": {}
}