{
  "_format": "hh-sol-artifact-1",
  "contractName": "ok",
  "sourceName": "contracts/uniFlashloan.sol",
  "abi": [
    {
      "inputs": [],
      "stateMutability": "nonpayable",
      "type": "constructor"
    },
    {
      "anonymous": false,
      "inputs": [
        {
          "indexed": false,
          "internalType": "string",
          "name": "message",
          "type": "string"
        },
        {
          "indexed": false,
          "internalType": "uint256",
          "name": "val",
          "type": "uint256"
        }
      ],
      "name": "Log",
      "type": "event"
    },
    {
      "inputs": [],
      "name": "souter",
      "outputs": [
        {
          "internalType": "contract IUniswapV2Router02",
          "name": "",
          "type": "address"
        }
      ],
      "stateMutability": "view",
      "type": "function"
    },
    {
      "inputs": [
        {
          "internalType": "address",
          "name": "token0",
          "type": "address"
        },
        {
          "internalType": "address",
          "name": "token1",
          "type": "address"
        },
        {
          "internalType": "uint256",
          "name": "amount0",
          "type": "uint256"
        },
        {
          "internalType": "uint256",
          "name": "amount1",
          "type": "uint256"
        }
      ],
      "name": "start",
      "outputs": [],
      "stateMutability": "nonpayable",
      "type": "function"
    },
    {
      "inputs": [
        {
          "internalType": "address",
          "name": "_sender",
          "type": "address"
        },
        {
          "internalType": "uint256",
          "name": "_amount0",
          "type": "uint256"
        },
        {
          "internalType": "uint256",
          "name": "_amount1",
          "type": "uint256"
        },
        {
          "internalType": "bytes",
          "name": "_data",
          "type": "bytes"
        }
      ],
      "name": "uniswapV2Call",
      "outputs": [],
      "stateMutability": "nonpayable",
      "type": "function"
    }
  ],
  "bytecode": "0x60a060405273c778417e063141139fce010982780140aa0cd5ab600160006101000a81548173ffffffffffffffffffffffffffffffffffffffff021916908373ffffffffffffffffffffffffffffffffffffffff16021790555034801561006557600080fd5b503373ffffffffffffffffffffffffffffffffffffffff1660808173ffffffffffffffffffffffffffffffffffffffff1660601b81525050731b02da8cb0d097eb8d57a175b88c7d8b479975066000806101000a81548173ffffffffffffffffffffffffffffffffffffffff021916908373ffffffffffffffffffffffffffffffffffffffff16021790555060805160601c61149c61010e600039806111ab525061149c6000f3fe608060405234801561001057600080fd5b50600436106100415760003560e01c80630f4c5fac1461004657806310d1e85c146100be5780635c6cb1e61461016b575b600080fd5b6100bc6004803603608081101561005c57600080fd5b81019080803573ffffffffffffffffffffffffffffffffffffffff169060200190929190803573ffffffffffffffffffffffffffffffffffffffff16906020019092919080359060200190929190803590602001909291905050506101b5565b005b610169600480360360808110156100d457600080fd5b81019080803573ffffffffffffffffffffffffffffffffffffffff16906020019092919080359060200190929190803590602001909291908035906020019064010000000081111561012557600080fd5b82018360208201111561013757600080fd5b8035906020019184600183028401116401000000008311171561015957600080fd5b90919293919293905050506105d9565b005b610173611441565b604051808273ffffffffffffffffffffffffffffffffffffffff1673ffffffffffffffffffffffffffffffffffffffff16815260200191505060405180910390f35b6000735c69bee701ef814a2b6a3edd4b1652cb9cc5aa6f73ffffffffffffffffffffffffffffffffffffffff1663e6a4390586866040518363ffffffff1660e01b8152600401808373ffffffffffffffffffffffffffffffffffffffff1673ffffffffffffffffffffffffffffffffffffffff1681526020018273ffffffffffffffffffffffffffffffffffffffff1673ffffffffffffffffffffffffffffffffffffffff1681526020019250505060206040518083038186803b15801561027c57600080fd5b505afa158015610290573d6000803e3d6000fd5b505050506040513d60208110156102a657600080fd5b81019080805190602001909291905050509050600073ffffffffffffffffffffffffffffffffffffffff168173ffffffffffffffffffffffffffffffffffffffff16141561035c576040517f08c379a00000000000000000000000000000000000000000000000000000000081526004018080602001828103825260058152602001807f217061697200000000000000000000000000000000000000000000000000000081525060200191505060405180910390fd5b60008173ffffffffffffffffffffffffffffffffffffffff16630dfe16816040518163ffffffff1660e01b815260040160206040518083038186803b1580156103a457600080fd5b505afa1580156103b8573d6000803e3d6000fd5b505050506040513d60208110156103ce57600080fd5b8101908080519060200190929190505050905060008273ffffffffffffffffffffffffffffffffffffffff1663d21220a76040518163ffffffff1660e01b815260040160206040518083038186803b15801561042957600080fd5b505afa15801561043d573d6000803e3d6000fd5b505050506040513d602081101561045357600080fd5b8101908080519060200190929190505050905060606040516020018080602001828103825260098152602001807f666c6173686c6f616e000000000000000000000000000000000000000000000081525060200191505060405160208183030381529060405290508373ffffffffffffffffffffffffffffffffffffffff1663022c0d9f878730856040518563ffffffff1660e01b8152600401808581526020018481526020018373ffffffffffffffffffffffffffffffffffffffff1673ffffffffffffffffffffffffffffffffffffffff16815260200180602001828103825283818151815260200191508051906020019080838360005b8381101561056857808201518184015260208101905061054d565b50505050905090810190601f1680156105955780820380516001836020036101000a031916815260200191505b5095505050505050600060405180830381600087803b1580156105b757600080fd5b505af11580156105cb573d6000803e3d6000fd5b505050505050505050505050565b6060600267ffffffffffffffff811180156105f357600080fd5b506040519080825280602002602001820160405280156106225781602001602082028036833780820191505090505b50905060008086146106345785610636565b845b905060003373ffffffffffffffffffffffffffffffffffffffff16630dfe16816040518163ffffffff1660e01b815260040160206040518083038186803b15801561068057600080fd5b505afa158015610694573d6000803e3d6000fd5b505050506040513d60208110156106aa57600080fd5b8101908080519060200190929190505050905060003373ffffffffffffffffffffffffffffffffffffffff1663d21220a76040518163ffffffff1660e01b815260040160206040518083038186803b15801561070557600080fd5b505afa158015610719573d6000803e3d6000fd5b505050506040513d602081101561072f57600080fd5b81019080805190602001909291905050509050600088146107505781610752565b805b8460008151811061075f57fe5b602002602001019073ffffffffffffffffffffffffffffffffffffffff16908173ffffffffffffffffffffffffffffffffffffffff1681525050600088146107a757806107a9565b815b846001815181106107b657fe5b602002602001019073ffffffffffffffffffffffffffffffffffffffff16908173ffffffffffffffffffffffffffffffffffffffff1681525050735c69bee701ef814a2b6a3edd4b1652cb9cc5aa6f73ffffffffffffffffffffffffffffffffffffffff1663e6a4390583836040518363ffffffff1660e01b8152600401808373ffffffffffffffffffffffffffffffffffffffff1673ffffffffffffffffffffffffffffffffffffffff1681526020018273ffffffffffffffffffffffffffffffffffffffff1673ffffffffffffffffffffffffffffffffffffffff1681526020019250505060206040518083038186803b1580156108b557600080fd5b505afa1580156108c9573d6000803e3d6000fd5b505050506040513d60208110156108df57600080fd5b810190808051906020019092919050505073ffffffffffffffffffffffffffffffffffffffff163373ffffffffffffffffffffffffffffffffffffffff1614610990576040517f08c379a000000000000000000000000000000000000000000000000000000000815260040180806020018281038252601c8152602001807f756e69563263616c6c206d73672e73656e64657220213d20706169720000000081525060200191505060405180910390fd5b600088148061099f5750600087145b610a11576040517f08c379a000000000000000000000000000000000000000000000000000000000815260040180806020018281038252600e8152602001807f63616e7420626520626f7468203000000000000000000000000000000000000081525060200191505060405180910390fd5b6000808914610a205782610a22565b815b90508073ffffffffffffffffffffffffffffffffffffffff1663095ea7b36000809054906101000a900473ffffffffffffffffffffffffffffffffffffffff16866040518363ffffffff1660e01b8152600401808373ffffffffffffffffffffffffffffffffffffffff1673ffffffffffffffffffffffffffffffffffffffff16815260200182815260200192505050602060405180830381600087803b158015610acc57600080fd5b505af1158015610ae0573d6000803e3d6000fd5b505050506040513d6020811015610af657600080fd5b8101908080519060200190929190505050506000737a250d5630b4cf539739df2c5dacb4c659f2488d73ffffffffffffffffffffffffffffffffffffffff16631f00ca7486886040518363ffffffff1660e01b81526004018083815260200180602001828103825283818151815260200191508051906020019060200280838360005b83811015610b94578082015181840152602081019050610b79565b50505050905001935050505060006040518083038186803b158015610bb857600080fd5b505afa158015610bcc573d6000803e3d6000fd5b505050506040513d6000823e3d601f19601f820116820180604052506020811015610bf657600080fd5b8101908080516040519392919084640100000000821115610c1657600080fd5b83820191506020820185811115610c2c57600080fd5b8251866020820283011164010000000082111715610c4957600080fd5b8083526020830192505050908051906020019060200280838360005b83811015610c80578082015181840152602081019050610c65565b50505050905001604052505050600081518110610c9957fe5b602002602001015190506000811415610d1a576040517f08c379a000000000000000000000000000000000000000000000000000000000815260040180806020018281038252600f8152602001807f21616d6f756e745265717569726564000000000000000000000000000000000081525060200191505060405180910390fd5b60008060009054906101000a900473ffffffffffffffffffffffffffffffffffffffff1673ffffffffffffffffffffffffffffffffffffffff166338ed173987848a33426040518663ffffffff1660e01b815260040180868152602001858152602001806020018473ffffffffffffffffffffffffffffffffffffffff1673ffffffffffffffffffffffffffffffffffffffff168152602001838152602001828103825285818151815260200191508051906020019060200280838360005b83811015610df4578082015181840152602081019050610dd9565b505050509050019650505050505050600060405180830381600087803b158015610e1d57600080fd5b505af1158015610e31573d6000803e3d6000fd5b505050506040513d6000823e3d601f19601f820116820180604052506020811015610e5b57600080fd5b8101908080516040519392919084640100000000821115610e7b57600080fd5b83820191506020820185811115610e9157600080fd5b8251866020820283011164010000000082111715610eae57600080fd5b8083526020830192505050908051906020019060200280838360005b83811015610ee5578082015181840152602081019050610eca565b50505050905001604052505050600181518110610efe57fe5b602002602001015190506000811415610f7f576040517f08c379a000000000000000000000000000000000000000000000000000000000815260040180806020018281038252600f8152602001807f21616d6f756e745265636569766564000000000000000000000000000000000081525060200191505060405180910390fd5b6000808c14610f8e5784610f90565b855b9050600160009054906101000a900473ffffffffffffffffffffffffffffffffffffffff1673ffffffffffffffffffffffffffffffffffffffff168173ffffffffffffffffffffffffffffffffffffffff1614611055576040517f08c379a00000000000000000000000000000000000000000000000000000000081526004018080602001828103825260138152602001807f6f7574707574546f6b656e20213d20574554480000000000000000000000000081525060200191505060405180910390fd5b8282116110ca576040517f08c379a000000000000000000000000000000000000000000000000000000000815260040180806020018281038252601a8152602001807f6e6f7420656e6f75676820746f6b656e7320746f20747261646500000000000081525060200191505060405180910390fd5b8073ffffffffffffffffffffffffffffffffffffffff1663a9059cbb33856040518363ffffffff1660e01b8152600401808373ffffffffffffffffffffffffffffffffffffffff1673ffffffffffffffffffffffffffffffffffffffff16815260200182815260200192505050602060405180830381600087803b15801561115157600080fd5b505af1158015611165573d6000803e3d6000fd5b505050506040513d602081101561117b57600080fd5b8101908080519060200190929190505050508073ffffffffffffffffffffffffffffffffffffffff1663a9059cbb7f00000000000000000000000000000000000000000000000000000000000000008585036040518363ffffffff1660e01b8152600401808373ffffffffffffffffffffffffffffffffffffffff1673ffffffffffffffffffffffffffffffffffffffff16815260200182815260200192505050602060405180830381600087803b15801561123657600080fd5b505af115801561124a573d6000803e3d6000fd5b505050506040513d602081101561126057600080fd5b8101908080519060200190929190505050507fdd970dd9b5bfe707922155b058a407655cb18288b807e2216442bca8ad83d6b5876040518080602001838152602001828103825260068152602001807f616d6f756e7400000000000000000000000000000000000000000000000000008152506020019250505060405180910390a17fdd970dd9b5bfe707922155b058a407655cb18288b807e2216442bca8ad83d6b58c6040518080602001838152602001828103825260078152602001807f616d6f756e7430000000000000000000000000000000000000000000000000008152506020019250505060405180910390a17fdd970dd9b5bfe707922155b058a407655cb18288b807e2216442bca8ad83d6b58b6040518080602001838152602001828103825260078152602001807f616d6f756e7431000000000000000000000000000000000000000000000000008152506020019250505060405180910390a17fdd970dd9b5bfe707922155b058a407655cb18288b807e2216442bca8ad83d6b58360405180806020018381526020018281038252600f8152602001807f616d6f756e7420746f20726570617900000000000000000000000000000000008152506020019250505060405180910390a150505050505050505050505050565b6000809054906101000a900473ffffffffffffffffffffffffffffffffffffffff168156fea26469706673582212207249de98565ce174b368ed227fee78e33c6b3433ea760b576b104c22e9a509e864736f6c63430006060033",
  "linkReferences": {},
  "deployedLinkReferences": {}
}